:1000000054170010F9230000F5230000F523000029
:10001000F5230000F5230000F52300000000000098
:10002000000000000000000000000000F5230000B8
:10003000F523000000000000F5230000F523000078
:10004000F5230000F5230000F5230000F523000050
:10005000F5230000F5230000F5230000F523000040
:10006000F5230000F5230000F5230000F523000030
:10007000F5230000F5230000F5230000F523000020
:10008000F5230000F5230000F5230000F523000010
:10009000F5230000F5230000F5230000F523000000
:1000A000F5230000F5230000F5230000F5230000F0
:1000B000F5230000F5230000F5230000F5230000E0
:1000C000F5230000F5230000F5230000F5230000D0
:1000D000F5230000F5230000F5230000F5230000C0
:1000E0002501000031180000A1180000452400007F
:1000F00065240000F5230000352E0000791700006C
:10010000F5230000F5230000F5230000F52300008F
:10011000F5230000F5230000F5230000F52300007F
:10012000F52300003F4B002010B54FF080421860CF
:100130005168C9B2282935D00BDC102921D003DC45
:10014000082967D158601CE0182923D0202961D1E3
:1001500058E0482956D004DC302938D0402959D1FC
:1001600041E0502938D0582954D1996894682E48D4
:10017000E4B2445401310C209960D860102313601C
:100180003DE0986059682948405C013190605960B1
:10019000282135E026480168012908D11020106087
:1001A000072239E0224958680968884206D259680E
:1001B0001E48405C90604A1C5A602EE01D48016851
:1001C00009B1202017E0102010600C2224E010203C
:1001D00009211060D96012E0996894681248E4B26D
:1001E0004454013199609868124B411C1B684FF0D0
:1001F0000400994201D210600FE090610DE00821E7
:10020000916110BD07494FF08043102208201A6009
:10021000C86005E0034B0A22DA6008204FF08043F3
:10022000986110BDDC080010F00B0010340C0010B9
:10023000740C0010EC0B0010194B5A6842F00201CC
:100240005960D3F8802042F02001C3F88010A3F554
:1002500080431A6B22F03F0119631A6B42F00101CF
:1002600019635A6B22F03F0159635A6B42F0010146
:1002700059636C224FF080434FF4C07102289A6199
:100280005961196101D1A020D860064B4FF48072EA
:1002900040214FF080405A6001600120704700BF4C
:1002A0000080044000E100E00F4B00229A60202112
:1002B0005A604FF0804006220160DA600A4BD9682C
:1002C00006290AD11868094A904202D90B22DA603D
:1002D00003E01968481C1860F0E720214FF08043C4
:1002E00001489961C0687047DC080010FEFFFF00FC
:1002F000F8B51A4B064618780F46144608B900F0B0
:1003000037F80F2E25D8102C25D80021144D0022A7
:100310006A5401313F29F9D9124BA01C18601249C7
:10032000124BD0200A601A6028706E700F4A136852
:10033000A34206D2FD5C0A48991C01334554136060
:10034000F4E7FFF7B1FF42F2107000BF0138FCD1B3
:10035000F8BD0320F8BD0420F8BD00BFF40800106C
:10036000340C0010740C0010EC0B0010780C001012
:100370001FB50120FFF760FF012418B3134B0020C5
:10038000024607211C7001F067F8114880211022F5
:10039000C26100248DF804108DF805108DF8061048
:1003A0008DF807101D23072001A909228DF80840A8
:1003B0008DF809408DF80A408DF80B308DF80C400F
:1003C000FFF796FF204604B010BD00BFF4080010F0
:1003D0000040044038B50E4B044618780D4608B965
:1003E000FFF7C6FF0F2C4FF0030010D809490A4B46
:1003F00008600A480022D0211A600170447085709C
:10040000FFF752FF42F2107000BF0138FCD138BD37
:10041000F4080010740C0010EC0B0010340C0010E9
:100420002DE9F8431B4B074618788846164608B94D
:10043000FFF79EFF0E2F29D80021174C174A0025E1
:100440006554555401313F29F7D9DFF85C90144BBE
:100450000220144A1860C9F80010D120D02116607B
:1004600021706770A070FFF71FFFC9F800500E4998
:100470000B68B34207D2094AD05C08F803000B6846
:100480005A1C0A60F3E70020BDE8F8830320BDE8AA
:10049000F88300BFF4080010340C0010F00B0010BB
:1004A000740C0010EC0B0010780C0010594B00215C
:1004B000D3F8382222F020000122C3F83802196252
:1004C0001A645A6459645A64596C5248C907FBD576
:1004D00005238360D0F8382222F08001C0F838125A
:1004E0004C4AD068C007FBD50120032300211367C5
:1004F000506751675067506F464BC107FBD5D3F823
:10050000382222F48061C3F83812D3F8380200216F
:1005100020F480720120C3F838229864D864D9642A
:10052000D8643C4AD36CD807FBD5032010615169CD
:10053000384BC907FBD5384900220120C3F8C02039
:100540009867C3F880105B6AC3F34312501E0E28ED
:1005500009D8DFE800F0260A0C0E10121416181A3B
:100560001C1E202224002D4B1CE02D4B1AE02D4B8D
:1005700018E02D4B16E02D4B14E02D4B12E02D4BC7
:1005800010E02D4B0EE02D4B0CE02D4B0AE02D4BD7
:1005900008E02D4B06E02D4B04E02D4B02E02D4BE7
:1005A00000E02D4B1B494A6A02F01F004200901CDC
:1005B0000A6FB3FBF0F302F003000228274A1FD0B2
:1005C00003280AD0012806D1096C01F00300022893
:1005D00016D0032813D0224B12E0086C00F0030061
:1005E000022802D003280AD01D4B886810F4C07F6F
:1005F00006D1896801F01F00411C4B4300E0002335
:100600001360044A154B906F1968B1FBF0F21A6041
:10061000704700BF008004405F000100801A0600A0
:1006200000350C00E0C81000C05C1500006A18001E
:1006300040771B0080841E00C0912100009F240091
:1006400040AC2700E032290020402C00604D2F00F4
:1006500000D4300040E1330020A10700000000106A
:10066000001BB7000346086830B51C18A3420BD026
:10067000064AD2F80412CD05ED0D555D013103F89F
:10068000015BC2F80412F1E730BD00BF080D001095
:100690000346086870B51C18A3420BD0064A13F82D
:1006A000016BD2F80012CD05ED0D01315655C2F89F
:1006B0000012F1E770BD00BF080D0010054BD3F824
:1006C0000022D3F80412531ADA05D10D016000207C
:1006D000704700BF080D00100346086830B51C18AD
:1006E000A3420BD0064AD2F80412CD05ED0D555D9C
:1006F000013103F8015BC2F80412F1E730BD00BF1D
:10070000100F00100346086870B51C18A3420BD0E8
:10071000064A13F8016BD2F80012CD05ED0D013138
:100720005655C2F80012F1E770BD00BF100F00105F
:10073000054BD3F80022D3F80412531ADA05D10D71
:1007400001600020704700BF100F001001207047AB
:100750000120704701207047012070470120704739
:100760000A4B0B4A99785878090441EA0021187815
:100770000143D87841EA00611160187959799B7971
:100780001071517193710120704700BFAD110010BD
:1007900004000010084A094B1168080A19705870C3
:1007A000080C090E9870D9701079517992791871E6
:1007B00059719A710120704704000010AD110010AA
:1007C000012070470120704713B501A8FFF776FF9D
:1007D000019B402B01DD402001900D4801A9FFF74E
:1007E00041FF021E0B4C0BDD8320094900F09EFFE8
:1007F00001993F2901DD012200E00022227006E07C
:10080000217809B100222270034B012018811CBD00
:10081000C60C0010F60800100400001013B50B4CB5
:10082000A37A73B10A49032000F056FF02A941F8E8
:10083000040D0748FFF766FF064B0021A1725970AF
:1008400002E00448012242701CBD00BF04000010F9
:100850007C0C0010F608001013B5234C00230DF19A
:100860000600638002F0DEFABDF80600020403D53C
:10087000628842F00101618000F400539AB222B113
:10088000194B598841F002025A8000F0100399B2C6
:1008900021B1154A538843F00401518000F480428D
:1008A00093B223B1104A518841F00803538000F0FD
:1008B000080291B221B10C4B5A8842F010015980C4
:1008C00000F004039AB222B1074B598841F020028C
:1008D0005A8000F0020083B203491BB14A8842F0FB
:1008E0004000488048881CBDF608001038B5084B09
:1008F000084D012200241A819A726C70FFF7ACFF38
:1009000068800548C0F80042C0F8044238BD00BF06
:1009100004000010F6080010100F00100A492020F3
:10092000A123487009480B7000238B70CB700B71AA
:100930004B71CB71438802228A711A0A4A72812054
:100940000A220B7200F0F2BEBC0C0010F608001078
:1009500082B050B140F6AC520192019B13B10199A3
:100960004A1EF9E7013880B2F3E702B07047000091
:10097000F0B5BE4897B001F0EFFCFFF7F9FC03F0CB
:1009800092FD03F037FD03F00FFD03F017FC02F0BA
:100990008BF902F05BF90022134608214FF4165040
:1009A00002F09EF903F038FC01220220042100F03D
:1009B00053FD0220042100F07DFD002002460121AC
:1009C00000F04AFD00F0C2FF00200146012200F0C5
:1009D00099FF00F0ABFF0024A54B1868830723D4D0
:1009E000A44DD5F8803043F48031C5F88010D5F897
:1009F000800040F04002C5F8802000F06DFDD5F881
:100A0000806046F48047C5F88070FFF76FFF00F004
:100A1000FDFD012000F0CCFD974D2B78002BFBD085
:100A20009648012101704CE00220FFF791FFB4F5D8
:100A3000FA7F0BDA2A2694FBF6F0002101222E27FA
:100A400000F04AFF002094FBF7F10FE0B4F57A7F45
:100A50000EDAA4F5FA75272095FBF0F00B210122A0
:100A600000F03AFF29220C2095FBF2F1012220E050
:100A700040F2DB518C420EDC0021A4F57A772A2368
:100A80000A4697FBF3F000F027FF00202E2197FB8A
:100A9000F1F102460DE0A4F2DC55272295FBF2F0BD
:100AA0000B210022292600F017FF0C2095FBF6F100
:100AB0000022013400F010FF00F038FFB4F5FA6FA7
:100AC0008AD16C4ED6F8802042F48037C6F8807008
:100AD000D6F8805045F04003C6F8803001F010FD94
:100AE0006649087828BB00F031FF00F01FFF01F0D5
:100AF000E1FF634E041C18BF01246248347000F00B
:100B00007DF988E00220FFF723FFB4F5FA7F13DABE
:100B100000212A270A4694FBF7F000F0DDFE2E2282
:100B2000002094FBF2F1024600F0D6FE00F0FEFE3B
:100B3000013C002CE6D1D6E7B4F57A7F0EDAA4F5B5
:100B4000FA76272596FBF5F00B21002200F0C4FE73
:100B500029230C2096FBF3F10022E5E740F2DB535A
:100B60009C420BDC2A21A4F57A7797FBF1F0012255
:100B7000002100F0B1FE00202E220AE0A4F2DC5792
:100B8000272097FBF0F001220B2100F0A5FE0C209E
:100B9000292297FBF2F10122C6E7384CA368666868
:100BA000FD18F119202D6160A56004D1364800F0D0
:100BB00025F90020A060354F62683E682F4DB24293
:100BC0000ADB03F018FA3249002432480C7000F0B6
:100BD00015F93C606C60AC602D4A177807BB03F0D8
:100BE00091FB03A804A905AA03F028FB2A4F039D43
:100BF0002A4E3D60049B2A4D05992A4C336029609A
:100C0000386831682A68D4F800E063680093734656
:100C100000F0A8FEC0B100F0DFFB00F003F9DBE755
:100C200000F0DAFB00F09EF807460028D4D006AEAC
:100C30003046012100F0A2F80025BD42ADDA705D1A
:100C400003F004FA0135F8E70D48027812B901F013
:100C5000A1FDE0E7386831682A6823686768009773
:100C600001F076FF0028D6D1F1E700BF80234300D2
:100C7000FC3F00500080044000120010FC080010EF
:100C800089090010285300003E530000181100107D
:100C90001C110010435300002011001024110010FB
:100CA000281100101000001010B5044603F0DEFCFF
:100CB0000022431E9A4206DAA15CE05CA054E15493
:100CC0000132013BF6E710BD30B5002280EAE07545
:100CD000A5EBE0750A2395FBF3F403FB14553035BF
:100CE0008D54531C251E01DD1A46F3E7002802DA55
:100CF0002D20C854931C00220846CA54BDE8304039
:100D0000FFF7D2BF08B5FFF7A7FD054B1A8882424F
:100D100004D01880BDE80840FFF700BE08BD00BF42
:100D20000809001030B509684118884215D00B4BEE
:100D30005A68541C5C605D683F2D01D900225A60DE
:100D40005C68074A10F8015B15555B68D25C0A2A9B
:100D5000EBD1024B01221A72E7E730BD08090010FF
:100D60002C110010044B5968DA6858689142DB680E
:100D700038BF4030C01A70470809001038B5044623
:100D80000D46FFF7EFFF0B4BD9684B1C3F2BC8BF3D
:100D9000002321188C4208D00748C25C013304F8B4
:100DA000012B402B08BF0023F4E715B1014842682E
:100DB000C26038BD080900102C11001073B502ACD8
:100DC00044F8041D2146064601F0F6FF084B18784A
:100DD00068B1084D29888AB2002AFAD021463046E7
:100DE000FFF756FC0449002310202B80C8607CBD0F
:100DF000FC0800100C0000100000024010B5044672
:100E000003F034FC01462046BDE81040FFF7D6BF92
:100E100007B502AB03F8040D18460121FFF7CEFF1A
:100E20000EBD0000F0B5984BE7B0187A002800F02E
:100E300091820021202207A803F082FB20220021BA
:100E40000FA803F07DFB07A80121FFF797FF07A973
:100E500020220FA803F03AFC07A88C4903AA04F04B
:100E60003FF817AD044644B145F8044B00208749CC
:100E700003AA04F035F80446F5E72C60179D844971
:100E8000284603F087FE002800F09D80189C8149C9
:100E9000204603F07FFE90B17F4C8048FFF7AEFF05
:100EA00026A92068FFF710FF26A8FFF7A7FF7748BD
:100EB000FFF7A4FF7A48FFF7A1FF606809E020462A
:100EC000784903F067FE48B17748FFF797FF774806
:100ED000006826A9FFF7F8FE26A870E020467449AE
:100EE00003F058FE20B17348FFF788FF7248EFE720
:100EF0002046724903F04EFEE8B106AA05A904A8EF
:100F000003F09CF96E48FFF779FF26A90498FFF7D4
:100F1000DBFE26A8FFF772FF3A20FFF779FF26A92C
:100F20000598FFF7D1FE26A8FFF768FF3A20FFF7E4
:100F30006FFF0698CDE72046624903F02BFE20B1F3
:100F40006148FFF75BFF6148C2E72046604903F054
:100F500021FE30B15F4B1A68052A0CBF5E485F481E
:100F60005EE020465E4903F015FE48B15D48FFF79C
:100F700045FF5D48017809B15C4820E05C481EE00F
:100F800020465C4903F006FE30B15B4B1A780AB983
:100F90005A4845E05A4843E020465A4903F0FAFDD2
:100FA00048B15948FFF72AFF5848016801290CBF8A
:100FB0005748584803E05848FFF720FF0FA8FFF7AD
:100FC0001DFF56482CE02846554903F0E3FD002854
:100FD00000F04D81189D3949284603F0DBFD10B320
:100FE000199B0A221C78597802FB04101979DC78C5
:100FF000A0F5047002FB0414A4F504719C79DB795C
:10100000182888BF0C2002FB0432A2F504723B2989
:1010100088BF00213B2A88BF002203F051F94148D4
:10102000FFF7ECFE93E128461E4903F0B3FD50B1F3
:10103000199803F081FA1D4B1860196809B901204D
:1010400018603948ECE72846194903F0A3FD58B168
:10105000199803F071FA184908600868642801D9E2
:1010600064220A603148DBE72846314903F092FDEB
:1010700000286AD0199803F05FFA2E4908600868C2
:10108000002859DC01235DE008090010015400002C
:10109000495300004D53000050000010535300000E
:1010A0005A5300006253000067530000A40400106C
:1010B0007F53000084530000A00400109C530000E4
:1010C000A1530000B0530000B55300001000001001
:1010D000C453000014000010CA530000DA5300008B
:1010E000EA530000F3530000890900100354000084
:1010F000085400000E540000A8040010165400000C
:1011000026540000355400003A540000E40B00104F
:1011100051540000595400005F540000DC55000099
:10112000715400007554000084540000A454000061
:10113000C45400009C0400100A68B2F57A7F02DDF6
:101140004FF47A730B6084486AE72846834903F0BA
:1011500021FD80B1199803F0EFF9814B18601868F0
:10116000194608B91C6004E01A68012A01D9002355
:101170000B607C4854E728467B4903F00BFD68B1BF
:101180007A49199803F006FD794918B101220A70CD
:10119000784845E700230B70774841E728467749B0
:1011A00003F0F8FC68B11998754903F0F3FC754B2E
:1011B00018B100201870744832E701221A70734881
:1011C0002EE72846724903F0E5FCC0B1199803F0F8
:1011D000B3F96E2804460DD078280BD0822809D0A8
:1011E0008C2807D0962805D0A02803D0AA2801D0A3
:1011F000684815E76848FFF701FE684912E028468D
:10120000674903F0C7FC78B1199803F095F90128F4
:10121000044603D0052801D0624801E76248FFF781
:10122000EDFD62490C6092E02846614903F0B2FC92
:1012300000283FF4C0AE199803F07EF907461A98CB
:1012400003F07AF906461B9803F076F905461C98D8
:1012500003F072F904461D9803F06EF931460090D0
:101260002A463846234601F0DDFB5248D8E6284698
:10127000514903F08FFC60B1189803F05DF9044602
:1012800002F0A8FE204602F0FFFE02F0A3FE4B484B
:10129000C6E628464A4903F07DFCA8B1189803F039
:1012A0004BF9484D286002F095FE286802F0ECFEEC
:1012B00002F090FE204602F0E1FE4348FFF79EFD5B
:1012C000424B0120187042E02846414903F062FC7D
:1012D00000283FF470AE189803F02EF9064602F08D
:1012E00047FF02F041FF032002F046FF204602F0D4
:1012F00043FF204602F040FF4FF48077204602F083
:101300003BFF96FBF7F7BC420FDA0025002002F006
:1013100033FF26AA50550135B5F5807FF6D110462A
:101320002946FFF74BFD0134EDE727EAE7710F028D
:10133000F61B0024B44226AD05DA002002F01CFFA3
:1013400028550134F6E728463146FFF737FD214B93
:101350000021197267B0F0BDCC5400003554000074
:10136000E40B0010EA540000EA530000FD540000B2
:101370008909001002550000125500000E540000AB
:1013800023550000A8040010295500004155000015
:10139000B0530000585500006755000010000010C1
:1013A000C453000076550000895500001400001059
:1013B0004D5300009C550000B8550000C155000079
:1013C000D055000018110010D95500001C11001054
:1013D000DF5500000809001000B593B001A801F026
:1013E00015FD019B002B0ADD01A902A801F0CEFC2E
:1013F00012A941F8480D02A86946FFF793FC12486C
:101400000278EAB1114B1978A1B901A8FFF790F958
:10141000019800280ADD01A902A8FFF75DF912AAC8
:1014200042F8480D694602A8FFF77CFC074B0121F2
:10143000197005E00648027812B1064B1021D960F8
:10144000FFF760FC13B000BDFC0800100E00001098
:10145000F70800100000024003289ABF0C4B53F815
:101460002030002303F5004342B91868020501202B
:1014700000FA01F1C84300EA125206E04FF480106E
:1014800000FA01F11A6842EA11521A60704700BF6F
:10149000E85500004FF4801202FA01F103289ABFC8
:1014A000034B53F820300023080D43F82000704709
:1014B000E85500004FF4801202FA01F103289ABFA8
:1014C000044B53F820300023080D002243F820205D
:1014D000704700BFE8550000104B1A6922F0070062
:1014E000186119690E4841F001021A61D0F88010A4
:1014F00041F48042C0F88020D86A20F01F01D962F0
:10150000DA6A42F00100D862D96C21F00702DA648D
:10151000D86C40F00101D964704700BF004004401E
:101520000080044082B000220192019B834202D2DB
:1015300001994A1CF8E702B07047034600F00F001B
:1015400040001B0648BF013070470000044B4FF4B9
:1015500080629A601861186810F4C06FFBD0704701
:101560000000024010B50C46FFF7F0FF2046BDE832
:101570001040FFF7EBBF10B50C46FFF7DEFF00048D
:1015800040F4A060FFF7E2FF2046BDE81040FFF7FF
:10159000DDBF0000054B4FF440629A601861186887
:1015A00010F4206FFBD001494869704700000240E9
:1015B0000349002808BF4FF480710248FFF7D2BFEB
:1015C000000101000005FE00034B044A40F2FE301A
:1015D0009A605860704700BF00000240FFFF0F0094
:1015E0007047000040F0800038B50404064D44F414
:1015F000807428462146FFF7B5FF28462146BDE8FE
:101600003840FFF7AFBF00BF0005D00008B5054B5D
:101610004FF400425A60FFF7D7FF0020BDE80840B2
:10162000FFF7E0BF00E100E00349002808BF4FF4E6
:1016300080710248FFF796BF000101000005D80045
:101640007047704708B5FFF778FF000440F4800149
:1016500041F4A0604FF48071BDE80840FFF782BFFD
:1016600008B5FFF76AFF000440F4800141F4A06070
:101670000249BDE80840FFF775BF00BF0001200028
:1016800008B5FFF75AFF000440F4800141F4A06060
:101690004FF48071BDE80840FFF764BF08B5FFF75D
:1016A0004CFF000440F4800141F4A0600249BDE811
:1016B0000840FFF757BF00BF0001010008B5FFF762
:1016C0003CFF000440F4800141F4A0604FF48071BD
:1016D000BDE80840FFF746BF00F00F0370B50546B0
:1016E000104C98000E4640F00101A1620520FFF762
:1016F00019FF236A5A05FCD59A05940DE01C800851
:1017000000238342074A04D0926946F8232001331C
:10171000F7E70021916228460349FFF72CFF204696
:1017200070BD00BF000002400005F200F8B500F0F7
:101730000F030F4D064698000F4640F00201144675
:10174000A9620520FFF7EEFEE21C6C6291080023FF
:101750008B4205D057F8232005480133C261F7E7D3
:1017600000233046AB620349FFF705FF2046F8BD72
:10177000000002400005FA00294A2DE9F0411368F3
:1017800013F40074936018D02648FFF7DFFE264854
:10179000FFF700FFC206044603D5FFF715FF00F070
:1017A000F7F9230739D5600703D5BDE8F04100F00C
:1017B000F1B9BDE8F04100F0EEB913F4FF7F2CD091
:1017C0005F08012606FA04F0384223D04FEA0448A5
:1017D00048F4800848F4A060FFF7B8FE48F40070B1
:1017E000FFF7D8FE14F0010F24FA06F50F4A0CD1CA
:1017F00034B9410704D5136813B13046984709E05E
:1018000052F8251031B1022003E052F8251009B139
:101810000320884701340A2CD3D1BDE8F08100BFF2
:10182000000002400005FE000002FE000856000015
:10183000184B10B51868810724D5174C2268511C25
:101840000C2A216004DC0020012102F04AFE05E0A0
:101850000120014602F045FE002323600F4A206864
:10186000102152F8200002F0ECFD002002F013FEDF
:1018700002F006FE02F054FE012002F00CFE054BC1
:101880000221196003480268D20601D510210160C7
:1018900010BD00BF00C00040180900101800001063
:1018A00010B50C4C2368DA0701D5012020602168AF
:1018B0004B0704D501F028F9064B04221A60206872
:1018C000C00605D5012000F07FFE024A10211160FC
:1018D00010BD00BF0000014010B5094B01242AB122
:1018E00004FA01F153F82020114305E004FA01F154
:1018F00053F8202022EA010143F8201010BD00BF58
:101900007811001030B5012303FA01F10346841861
:10191000A34207DA044C54F823500D4344F82350F3
:101920000133F4E730BD00BF781100100023054AF1
:10193000054852F8231040F8231001330D2BF6D13F
:10194000704700BF78110010180000100023044AEF
:10195000002142F8231001330D2BF8D1704700BF4E
:10196000781100102DE9F0439946A3F1640385B086
:10197000642B04460E4615460C9F00F2D4806C483A
:1019800002780AB1D0F804900B2C6A4B05DD0120D7
:101990000C2C186006D00C3C04E0002119608C422D
:1019A00008BF0C24AAB9624BD3F80880A04510D117
:1019B000596889450DD1012F02D1D9688E4207E0BF
:1019C000052F7DD1D86890FBF7F196FBF7F08142A7
:1019D00076D0DFF85C81D8F80430404699451ED1B6
:1019E000B9F1AA0F1BD1E2B901F06EFA42F6AA22B0
:1019F00090FBF2F10A2303FB01F06E30C8F81000EF
:101A00004D48FFF7FBF903A9D8F81000FFF75CF980
:101A100003A8FFF7F3F94948FFF7F0F901E0C0F830
:101A20001090DFF80C81D8F810208C2A2AD00CDC1A
:101A3000782A17D0822A1ED06E2A38D12046314605
:101A40002A463B4602F08CFA12E0A02A21D0AA2AAC
:101A500026D0962A2BD1204631462A463B4602F014
:101A600027F805E0204631462A463B4601F048FE6D
:101A700088F8000045E0204631462A463B4601F002
:101A8000F3FEF5E7204631462A463B4601F076FF55
:101A9000EEE7204631462A463B4602F0D1F8E7E71A
:101AA000204631462A463B4602F018FAE0E7314626
:101AB00020462A463B4602F053FA1D49087020E0B2
:101AC0005A69954206D04DB10F2D07D01E2D05D075
:101AD0002D2D03D0164BD868864212D0FFF736FF63
:101AE000002100910191404631462A463B4601F0D3
:101AF00035FA404631462A463B4601F001FAFFF7E7
:101B000015FF0F480A4B02785D61DE609C60C3F8E8
:101B1000049032B1197821B90A4A0170A0201060EE
:101B20005860187800E0002005B0BDE8F08300BFE1
:101B300024090010E00B0010F8550000DC550000EF
:101B40004C00001010000010022803D0032803D11D
:101B5000FEF73ABEFEF762BE70470000032808B5E4
:101B600010D1094B188881B209B9FEF72DFEFEF796
:101B700073FE064B1A88824204D01880BDE80840E4
:101B8000FEF7CCBE08BD00BF0C0000103C090010E1
:101B900000F008B870477047014B1B78704700BFD2
:101BA00000120010074A0023074813800749084A1B
:101BB00003704FF001100B701060064906480B606F
:101BC0000360704714120010F4110010001200108E
:101BD000F0110010FC110010F81100100149002054
:101BE000FFF77ABD0112001010B5084C8020A288C2
:101BF0002168402A28BF4022FFF798FD2368A28869
:101C00001918101A2160A08010BD00BF0C1200101E
:101C100010B5064C00202168FFF75EFD2368A288FE
:101C20001918101A2160A08010BD00BF0C120010FE
:101C3000002180200A46FFF779BD000001490020FD
:101C4000FFF74ABDAD110010214A137803F01F00C1
:101C5000012805D0022813D0002836D11D4830E0D5
:101C60001D480078002831D01C4B11791A784FF0AC
:101C7000000091422AD21A4B18801A48036022E0D1
:101C8000127902F08001CBB223B102F00F004FF4C1
:101C9000803102E002F08F00012101FA00F30E48CA
:101CA000007808B9120711D10F4A116813EA010030
:101CB0000CD00E4A0A4811680B420CBF00230123C6
:101CC0000380084A1060012070470020704700BF61
:101CD000011200101412001000120010091200105E
:101CE000AD1100100C120010F0110010FC110010CA
:101CF00038B5294B01461A7812F01F0202D0022A89
:101D000046D112E05C88012C42D1244D30B12046EE
:101D1000FFF766FC2A8842F0020004E0FFF760FC4F
:101D20002B8823F00200288034E01B7903F0800028
:101D3000C4B203F08F0234B103F00F004FF48034CB
:101D400004FA00F402E0012404FA02F414480078D2
:101D500008B313F00F001ED0124B186820401AD0A1
:101D60000D4B5888A0B931B11046FFF797FC0E48CB
:101D700001680C430AE00D490B681C420AD1104669
:101D8000FFF79CFC0848026822EA0404046001E0B2
:101D9000002038BD012038BD0112001014120010BF
:101DA00000120010F0110010FC110010F8110010CA
:101DB000064B1A78D10606D19878054B60F07F0162
:101DC0001970012070470020704700BF01120010F9
:101DD000F41100101B4B187810F01F002ED1DA7888
:101DE000022A0BD0032A06D0012A2AD11649174B02
:101DF000122019601CE09978154B13E09A78154B66
:101E0000904205D0197809B159885B180130F7E77D
:101E10001878B0B10D480360588809E01A7802B10B
:101E20009B1801308842F9D1187850B1074A1360E5
:101E300006498A88824203D9888001E000207047E1
:101E40000120704701120010475700000C120010CB
:101E50009B56000003570000054B1878C00604D1BC
:101E6000044A054901200A6070470020704700BFFE
:101E700001120010001200100C120010F8B5574BA0
:101E80001E7816F01F0640F0A7809878002872D0C0
:101E9000534C2078002800F094806178042946D0C3
:101EA000052946D0022963D14C4862798378934250
:101EB0003BD14C4D27794C494C4800222B700F7078
:101EC00002700125012101FA05F1494F3B681942D1
:101ED00002D02846FFF7C4FB4FF4803202FA05F225
:101EE0003868024203D045F08000FFF7B9FB0135A6
:101EF000102DE7D13E4B4FF0011119603D4A3E498C
:101F00000020106008600120FFF78EFBE3793B4959
:101F100003F04000C2B21AB10A8842F0010002E0A8
:101F20000B8823F00100088022E0638821E0E67836
:101F30001EE0EEB9A17801F08003D8B201F08F0560
:101F400030B101F00F014FF4803202FA01F302E0E8
:101F5000012303FA05F3264801680B43036020467A
:101F6000FFF76EFB2846FFF76DFB2846FFF788FB5F
:101F70002378E4188DE71B4A01241070012101FA2F
:101F800004F11B4D2B68194202D02046FFF768FB75
:101F90004FF4803000FA04F02A68104203D044F075
:101FA0008000FFF75DFB0134102CE7D1104B4FF0A0
:101FB000011119600F4A1049002010600860FFF7F6
:101FC00033FB084B054A19789078B0EB010CDCF133
:101FD000000353EB0C00F8BD0020F8BD0112001007
:101FE000035700000012001009120010AC1100107D
:101FF000F0110010FC110010F81100101412001064
:102000000A4A137803F01F03012B0DD10849087801
:1020100058B11079074A1178814205D9064A074913
:1020200080180860184670470020704701120010A1
:102030000012001009120010AC1100100C12001058
:102040002DE9F84F404B187800F01F01012977D196
:102050003E4A1578002D74D000253D4C2F46AA46E7
:102060002E46A9462378002B6BD0607804280AD02E
:10207000052819D0022860D1344962790B789A4238
:102080005BD063885AE0304F94F802903979E67853
:1020900089454FD1BA7896424CD12E4D15F809A0FA
:1020A00005F80960012545E027480179894544D1B3
:1020B00094F8028008F08003DAB208F08F0B32B196
:1020C00008F00F014FF4803303FA01F803E04FF0FA
:1020D000010000FA0BF81C4A9078864215D11E4A7E
:1020E00047EA0807106848EA000111601B4A1368B4
:1020F00023EA080010602046FFF7A2FA5846FFF7CF
:10210000A1FA5846FFF7BCFA17E0564515D118EA70
:10211000070F11D110496FEA08080B680F4808EA49
:1021200003020A60016808EA010303605846FFF7EA
:1021300097FA01E0002700E0B2462378E41891E71F
:1021400000252846BDE8F88F01120010001200108B
:1021500003570000AC110010F0110010FC1100102A
:10216000013870B5062800F2EE80DFE810F00700B5
:102170009C00D300EC00EC00E500E700724CFFF798
:102180002DFD2578E809FFF75CFAA679E3796F4D14
:1021900046EA0321A98020782E46C0F341121AB1E5
:1021A000012A40F094803BE063780B2B00F28F8093
:1021B000DFE803F0060C8D158D171A1D232630332A
:1021C000FFF742FD002800F0828051E00020FFF779
:1021D0008FFD00287BD0BDE87040FFF729BD0120AE
:1021E000F5E7FFF7E5FDF4E7FFF7F4FDEAE7002088
:1021F000FFF754FA0020A88070BDFFF72DFEE1E73D
:10220000FFF73CFE002862D0FFF712FDBDE87040EA
:10221000FFF7C2BCFFF7F4FED4E7FFF711FFD8E7E2
:1022200000F01F03012B52D1217901294FD860788A
:1022300004282AD007D8012814D02AD3022828D06D
:10224000032844D118E0212826D002D820283ED1E6
:102250001FE0222823D0232839D13B4A5088FEF79B
:10226000B1FAB6E7FEF774FA002830D03849296091
:10227000BDE87040FFF7B8BC334A5088FEF76CFAEF
:1022800028B33349314B1960F2E76088FEF766FAEC
:102290009FE72F48286070BDFEF77CFAE4E760886E
:1022A000FEF78EFA95E7284C227802F08000C3B240
:1022B00063BB264DA988002945D0FFF7A9FCAA8851
:1022C000002A40D12078C0F34113012B06D0802092
:1022D000FFF7E4F91D4900228A8070BD00F01F015C
:1022E0000129F4D12279012AF1D86078022806D098
:1022F000202808D00028EAD1FEF728FA69E760888C
:10230000FEF728FA65E7FEF72BFA62E7BDE87040B2
:10231000FFF794BC0C4B197801F08002D0B2002872
:10232000A6D10C4B19780A060DD501F07F00187064
:10233000BDE87040FFF756B9002000E08020BDE8FE
:102340007040FFF7BBB970BD011200100C120010F5
:10235000AD110010F4110010104BD3F8382222F008
:102360001001C3F83812D3F8802042F40051C3F8AA
:1023700080100B490B4B0022B1FBF0F01A605A6041
:102380009A60DA601A615A619A61DA61431E1A0230
:10239000054842F001010160704700BF0080044021
:1023A00000A24A041812001000C001400F4B072879
:1023B00088BF00201A6822F0FF0119601A6842F0F5
:1023C0008071012202FA00F21143094A800019606B
:1023D000811808680028FCDA1A6822F0E0611960A8
:1023E000430054BFC0F389100020704700C0014073
:1023F00010C00140FEE7000008B500230C4A0D495B
:102400009818884204D20C48195899500433F5E7BB
:102410000A480B494FF000028842B8BF40F8042B2D
:10242000FFF6FAAFFEF742F8BDE80840FEF7A0BAA3
:1024300000000010DC080010D0580000DC0800107C
:1024400058130010064B1A68D20701D501201860F6
:102450001968CB0602D5024B10221A60704700BFE4
:102460000040014008B5084B1A68D00701D501208B
:1024700018601968C90605D5002000F0A5F8024BC0
:1024800010221A6008BD00BF00800140184B4FF4B5
:102490008052C3F884201749C3F884214FF4806028
:1024A000154AC3F88400C3F88401002003234B605D
:1024B0005360C860D06008611061486150618862F3
:1024C0009062C863D06308671067486750674860C8
:1024D0000A495060D1F8803023F48062C1F880202E
:1024E000D1F8800020F48073C1F88030704700BFBD
:1024F00000E100E000800140000001400080044055
:102500002C4B2DE9F041D3F880202B4F42F4806012
:10251000C3F88000D3F88010284EDFF8A88041F47B
:1025200080740325C3F88040AB227D600024756071
:10253000072301252920FD602146F5603C673467AB
:102540007C617461BB62B362C8F87820C8F814007B
:1025500022462846FEF780FF284608212246FEF73D
:102560007BFF8121C8F88010284602212246C8F846
:102570002440FEF771FF022008212246FEF76CFF7F
:102580000F4B4FF480524FF4806083F82C43B321FB
:1025900083F82A43C3F884215A60C3F88401586041
:1025A0003123C8F87810C8F814307D607560BDE834
:1025B000F08100BF00800440008001400000014025
:1025C00000E100E00040044002220B4B48B90B49F7
:1025D0004A601868CA6A81181960094B012018708E
:1025E000704708494A605868CA6A81185960044BA4
:1025F00001205870704700BF381200100080014061
:10260000400900100000014030B5594B85B053F827
:1026100020109A680446914201DC00209EE0554D4E
:10262000986805EB84056968814240F39580EA6803
:10263000DB68501C9842E86060D14F48FEF7DEFB33
:1026400069462046FEF740FB6846FEF7D7FB4B483D
:10265000FEF7D4FB6946E868FEF736FB484D68464E
:10266000FEF7CCFB4748FEF7C9FB2968A4B96429EB
:1026700036DD2B68C72B33DC2A68822A23D0294613
:1026800004DC6E2A26D0782A28D125E0962A1DD08F
:10269000A02A1DD08C2A0CE0642921DD2A68C72AD3
:1026A0001EDC2868822811D0294605DC6E280AD055
:1026B000782813D1822512E096280BD0A0280BD0C1
:1026C0008C280BD104E07820286009E08C20FBE7FF
:1026D000962504E0A020F7E76E2500E078250D6040
:1026E000274908686946FEF7EFFA2748FEF786FB98
:1026F0006846FEF783FB2348FEF780FB1D481C4B12
:1027000000EB84051A69E968914286DD1F48FEF7EF
:1027100075FB69462046FEF7D7FA6846FEF76EFB62
:102720001648FEF76BFB6946E868FEF7CDFA684687
:10273000FEF764FB1348FEF761FB012C05D1104B3B
:10274000AA2213481A60FEF759FB0A48002200EB40
:102750008401CA60012001E00020E860044B054AC2
:1027600053F8241002EB8404616005B030BD00BF53
:1027700050000010400900101C56000000540000DA
:1027800010000010DC5500002956000038560000EB
:1027900044560000F7B5954B0022197D8DF80420B2
:1027A0008DF8052019B192481A759861D8619D6914
:1027B000904A6F1C95428D4C9F610EDD8E48FEF74E
:1027C0001DFB8E4D8E4900234FF4FA7001270B60DC
:1027D000A3612370686184F82070844C8549E369A3
:1027E0005A1C8B42E2610EDD8648FEF707FB844DE2
:1027F000824B00204FF4FA7701226860E06160703C
:102800009F6184F82120794C7A4DA169481CA94226
:10281000A06114DD7C48FEF7F1FA3020FEF7F8FAEB
:102820007A48FEF7EBFA764B744900274FF4FA72B8
:1028300001201F60A76127704A6184F820006B4C5B
:102840006C4BE5696F1C9D42E76114DD6E48FEF735
:10285000D5FA3120FEF7DCFA6C48FEF7CFFA674D67
:10286000674A00214FF4FA7001275160E1616170FD
:10287000A86184F821705D4C23781BB96178C9B1D7
:10288000012500E0002504EB8502506A002767550A
:10289000441CB0F5007F976154624FF0010105DBE5
:1028A00002A8441904F8041C576203E04F4B5D1959
:1028B00085F820100024254601AFEA5D002A67D084
:1028C0004E4E4F4906F11C02A058D6F824C051F8CC
:1028D000253040FA0CFCCCEB0000C318A350726A00
:1028E000002043FA02F34A4A41F82500E855A2F1D4
:1028F0000C0101206854B16A5B114140B16206F1DC
:1029000014016058A350002806F12C0618DD421E61
:1029100062503159052003EB810393FBF0F13151F3
:10292000002A35D13848FEF769FA05F13002D0B2F5
:10293000FEF76EFA3748FEF761FAA2590A3226E02E
:102940000832A158481C1D29A0500CDD3159081F20
:10295000984201DC013103E0C918022091FBF0F13B
:10296000A15100261651254A02F12C06A0591B1A26
:1029700042F8253052F82510002902DA002042F8EA
:1029800025002846FFF740FE10B13259323232514D
:1029900001350434022D8FD1144B93F821001946D0
:1029A00080B1164A936A012B0CD1002191621A4A18
:1029B0001A49506910F0100F01D0292000E0312091
:1029C000506111E091F820307BB10C48816A61B907
:1029D000114A01238362906F114910F0100F01D04A
:1029E000AB2000E0B32090674B60FEBD40090010B3
:1029F000A1860100A08601005C5600005000001076
:102A000038120010705600003D560000635600005A
:102A10006C09001084560000004004400000014092
:102A20000080014030B5074C656A854203D0606282
:102A3000054801250575A1606263E360039B23617E
:102A400030BD00BF500000104009001008B5174B02
:102A5000D3F88020A3F5804142F48070C3F8800051
:102A60000122A1F5503311208A63CA66D860FF2184
:102A70004FF4806059625861596941F040015961D1
:102A8000032159677F219961D96119625A60084B06
:102A9000002183F82A13586004210220FEF7DCFC91
:102AA00002200421BDE80840FEF704BD0080044078
:102AB00000E100E070B501F05BFB01F055FB032085
:102AC00001F05AFB002001F057FB002001F054FBFD
:102AD000002001F051FB002001F04EFB06460020D3
:102AE00001F04AFB0546002001F046FB044601F0D8
:102AF0003FFBAA2E06D17F2D04D1B4F155035842D5
:102B0000584170BD002070BD0E4B10B51A78C2B987
:102B10000D4C20686168814203DB012162601970FD
:102B200010BD01F016FB80F40043C3F57F42FF3275
:102B300090120649C2F3870362688861901CCB61DA
:102B4000606010BD880000107C090010000001408A
:102B5000F8B5643B642B0C4659D80C2802DDA0F173
:102B60000C0503E0002814BF05460C251E2C00D0E0
:102B700054BB2F4B2F4A9868844202D15168A94216
:102B800022D02D491E2C08682C4990600868294BDA
:102B9000D06008D12A4A0B2D10682A49186109DC37
:102BA00051F8251007E03CB9264A691E52F8210069
:102BB0002549186109685961FFF768FCFFF746FF6E
:102BC0001B4B01221A731CE0194B187BC8B1194A20
:102BD0001178B1B10023174E9F0006F1080050F89C
:102BE0002300421C15D10133062BF4D1022004210D
:102BF000FEF760FC0E4900220A73FFF747FCFFF75F
:102C00007FFC0B480B4984604D60007BF8BD0020C1
:102C1000F8BD01F05AFA064B042118600220FEF7B5
:102C200039FCF7194FF0FF300022B8603270E8E746
:102C30007C090010880000106857000064570000ED
:102C4000605700006C5700005C570000144B15489B
:102C50004FF48042C3F88420D0F8A41021F007027A
:102C6000C0F8A420D0F8A43043F00101C0F8A410AB
:102C7000D0F8A82022F00703C0F8A830D0F8A81098
:102C800041F00102C0F8A82000F58040D0F8803063
:102C9000012243F48051C0F88010C0F8982070479A
:102CA00000E100E0004004400B4BD3F8A42022F0E8
:102CB0000700C3F8A400D3F8A810002021F00702F1
:102CC000C3F8A820054AA3F570334FF4804158603B
:102CD000C2F88410704700BF0040044000E100E0EB
:102CE00005390229F0B598BF204C214E94BF655C90
:102CF0000325013A013B012B94BF04230023032A3F
:102D000098BF1A491B4F9CBF8A18D4781A4A88BFAB
:102D100000240021C6F88010C6F88410C7F880107F
:102D2000D2F89860C7F88410926F144F2B43B7FB0A
:102D3000F2F2B2FBF6F2B2FBF0F0114A23439162D9
:102D400043F08001D1601060000A50600721D36019
:102D50000C480323536091600B4B012202604FF437
:102D60008041E022596083F82E23F0BD9456000084
:102D7000D0120010401200100080044020AA44002D
:102D800000800040C812001000E100E0034608681F
:102D900030B51C18A3420BD0064AD2F8841001F0BB
:102DA0007F05555D013103F8015BC2F88410F1E73E
:102DB00030BD00BF401200100346086870B51C18F3
:102DC000A3420BD00E4A13F8016BD2F8801001F029
:102DD0007F0501315655C2F88010F1E7094B1A689A
:102DE00062B100211960064B0749D3F8842002F034
:102DF0007F041C5D01320C60C3F8842070BD00BFED
:102E0000D0120010C812001000800040044BD3F80C
:102E10008020D3F88410531A03F07F0202607047B9
:102E200040120010024B1A88028000201880704760
:102E3000CC12001013B51F4B9868019001994A07F6
:102E400003D51D4BD3F8803007E0019A12F00C0F28
:102E5000F7D1019B9B0710D425E01649581C4A69FD
:102E600012F0010F144A05D0096803F07F03D15412
:102E70000346F2E7C2F88030EBE7104BD3F880103E
:102E8000D3F88420881A10F07F0F0D4909D002F082
:102E90007F041C5D074801320460C3F884200023CE
:102EA00000E001230B600349064A4B6903F01E0052
:102EB00010801CBD0080004040120010D012001095
:102EC000C8120010CC120010054B188880EA40315F
:102ED0008AB282EA522080EAC01188B21880704714
:102EE000A8000010054B987880EAC011CAB282EAA7
:102EF000521080EAC001C8B298707047A800001054
:102F0000042B09DC0E2A1ADD1D2A1BDD2C2A1CDDF0
:102F10003B2A11DD00201AE0052391FBF3F06FF04E
:102F2000040202FB00114B00022B08D0042B09D035
:102F3000062B0AD0082BEDD14FF4804007E04FF468
:102F4000005004E04FF4805001E04FF40040024A8A
:102F5000116B084310637047781100102DE9F0479A
:102F6000042B07460C469DF820A09DF824802EDDFA
:102F7000042917DD092917DD0E2917DD132917DDAF
:102F8000182917DD1D2917DD222917DD272917DD4F
:102F90002C2917DD312917DD362917DD3B29D8BF4C
:102FA000372414E0002412E0052410E00A240EE087
:102FB0000F240CE014240AE0192408E01E2406E083
:102FC000232404E0282402E02D2400E03224DFF84A
:102FD0000893C04DD9F80010D9F80020D9F8003076
:102FE0004FF4FC7606FB015006FB025106FB035230
:102FF00040688968D268FEF785FCD9F80000D9F8E6
:103000000020D9F8003006FB005106FB025206FBF7
:103010000353086951699A69FEF774FCACB9BAF1B7
:10302000000F40F00783D9F80000D9F80030D9F834
:10303000001006FB005206FB035306FB0155506BC4
:10304000996BEA6BFEF75EFC03E0BAF1000F40F00B
:10305000F182601E0D282AD80C239F4D63432968F6
:103060002A6828684FF4FC7909FB013109FB023218
:1030700009FB0030974E33187118B218D1F8480187
:10308000D2F84C11D3F85021FEF73CFC29682A688D
:10309000286809FB016109FB006309FB0262C8693A
:1030A000116A5A6AFEF72EFCA4F10D00F1E1A4F1B9
:1030B00010010D2972D8884D2A684ABB4FF00C0CBC
:1030C000C4F11E030CFB03F329682A6828684FF437
:1030D000FC7909FB013109FB023209FB00307D4E0E
:1030E00033187118B218D1F84801D2F84C11D3F83E
:1030F0005021FEF707FC29682A68286809FB01614E
:1031000009FB026209FB0063886AD16A1A6BD1E08D
:10311000032943D82B68012B40D14FF00C09A4F1AF
:103120000A0309FB03F329682A6828684FF4FC792D
:1031300009FB013109FB023209FB0030654E3318EF
:103140007118B218D1F84801D2F84C11D3F85021B7
:10315000FEF7D8FB29682A68286809FB016109FB8A
:10316000006309FB0262C86FD2F88010D3F8842094
:10317000FEF7C8FB59480178002958D02A682B6807
:103180002D6809FB026009FB036109FB0566D0F8A5
:103190009400D1F89810D6F89C2046E0A4F11402CF
:1031A000092A55D84C4D2868012851D10C23534386
:1031B00029684FF4FC7909FB0132464ED5F800E04E
:1031C0002868B11809FB003009FB0E323318B21819
:1031D000D1F84801D2F84C11D3F85021FEF792FBF8
:1031E00029682A68286809FB016109FB006309FB5B
:1031F0000262D1F88800D2F88C10D3F89020FEF744
:1032000081FB142C13D03548017881B12A682B68D2
:103210002D6809FB026009FB036109FB0566D0F814
:10322000A000D1F8A410D6F8A820FEF76BFB2A4A1C
:10323000284B1068116815684FF4FC7202FB0030CF
:1032400002FB013102FB0533C069096A5A6AEFE1EA
:10325000A4F11F010D2900F291801F4D2B68002B56
:103260003ED14FF00C0CA4F11E030CFB03F32968B4
:103270002A6828684FF4FC7909FB013109FB023206
:1032800009FB0030134E33187118B218D1F84801F9
:10329000D2F84C11D3F85021FEF734FB29682A6884
:1032A000286809FB016109FB026209FB0063C86928
:1032B000116A5A6AFEF726FB28682B68296809FB01
:1032C000006209FB036309FB0166D06C196D726D26
:1032D000AEE100BFA8000010E40B0010A80400102D
:1032E00009294BD82A68012A48D12868AF4E2A6894
:1032F0002B684FF4FC7909FB006109FB026209FBB2
:103300000363D1F88800D2F88C10D3F89020FEF730
:10331000F9FA282C13D0A648017881B12A682B68C5
:103320002D6809FB026009FB036109FB0566D0F803
:10333000A000D1F8A410D6F8A820FEF7E3FA0C26D6
:10334000C4F128037343DFF86C924FF4FC76D9F88C
:103350000010D9F80020D9F8000006FB013106FB67
:10336000023206FB0033914D6918AA18EB18D1F808
:103370004801D2F84C11D3F8502148E1A4F12900BA
:10338000032856D88B4D2968012940F0EB804FF077
:103390000C09C4F1320309FB03F329682A68286881
:1033A0004FF4FC7909FB013109FB023209FB0030C3
:1033B0007E4E33187118B218D1F84801D2F84C116A
:1033C000D3F85021FEF79EFA29682A68286809FB7D
:1033D000016109FB006309FB0262C86FD2F880102B
:1033E000D3F88420FEF78EFA7148017881B12A68FB
:1033F0002B682D6809FB026009FB036109FB056668
:10340000D0F89400D1F89810D6F89C20FEF77AFAFC
:10341000684A664B1068116815684FF4FC7202FB2D
:10342000003002FB013102FB0533806AC96A1A6B66
:10343000FEE02D2C59DD4FF00C0EC4F13C035D4D28
:103440000EFB03F329682A6828684FF4FC7909FB0E
:10345000013109FB023209FB0030544E3318711858
:10346000B218D1F84801D2F84C11D3F85021FEF728
:1034700049FA29682A68286809FB016109FB006389
:1034800009FB0262886AD16A1A6BFEF73BFAA4F163
:103490002E00012800F2CE802868012840F0CA8062
:1034A00029682A682B6809FB016009FB026109FB96
:1034B0000362C06FD1F88010D2F88420FEF722FAA0
:1034C0003B4B1878002800F0B5802A682B682968E3
:1034D00009FB026009FB036209FB0166D0F8940056
:1034E000D2F89810D6F89C20A2E00F2C3AD1314D9A
:1034F0002E68012E10D128682C4B29682D684FF4B6
:10350000FC7202FB003602FB013102FB0535B06D97
:10351000C96D2A6EFEF7F6F9DFF89890234DD9F8B9
:103520000000D9F80020D9F800304FF4FC7606FBF3
:10353000035306FB005106FB0252086C516C9A6C57
:10354000FEF7E0F9D9F80000D9F80030D9F80010FA
:1035500006FB005206FB035306FB0155D069196AAE
:103560006A6A65E01E2C27D1124D104E28682A6821
:103570002B684FF4FC7909FB006109FB026209FB2F
:103580000363C86C116D5A6DFEF7BCF928680128F9
:1035900050D12A682B68296809FB026009FB036285
:1035A00009FB0166C069116A726A41E0A800001057
:1035B000A8040010E40B00102D2C3BD14D4E3568B3
:1035C000012D10D130684C4B316836684FF4FC72D5
:1035D00002FB003502FB013102FB0636A86DC96D06
:1035E000326EFEF78FF9DFF80C91434DD9F80000E9
:1035F000D9F80020D9F800304FF4FC7606FB0051D2
:1036000006FB025206FB0353086C516C9A6CFEF7E2
:1036100079F9D9F80000D9F80030D9F8001006FB84
:10362000005206FB035306FB0155906AD96A2A6BC8
:10363000FEF768F9B8F1000F59D12E4B196801292E
:103640000CBF1E200F20844201DC186803E00B2F02
:1036500018DC186801370C22574319681C684FF4AE
:10366000FC7202FB007002FB017102FB0477224B2B
:1036700018185918DB19D0F8AC00D1F8B010D3F8ED
:10368000B42013E00C2F13D1186819681C681A4B6A
:103690004FF4FC7202FB003002FB013102FB0433E9
:1036A000D0F8B800D1F8BC10D3F8C020FEF72AF942
:1036B000104B1A68012A1AD1104C22681868012A86
:1036C00019680D4A1C684FF4FC7303FB002003FBD0
:1036D000012103FB042303D1006F496F9A6F02E0BD
:1036E000406E896EDA6EBDE8F047FEF70BB9BDE8B3
:1036F000F08700BFE40B0010A8000010E00B0010E2
:103700002DE9F04F534C1E46236885B0814688460C
:103710001746C3B9504A2821D2F8F45318204D4314
:10372000206065601C464D4B4D4D53F8240000232E
:103730000205110D45F82410343545F824300134C4
:103740000D2CF0D10AE06068421E002862607DDC2A
:1037500041492823D1F8F4535D4365603D4D286805
:10376000421E2A60FEF7F2F829680C2933DD0C3975
:103770004FF0010B0BFA01FB05F1040A6FEA0B0392
:10378000383500240293FFF79FFB0390FFF79CFB63
:10379000039A00F0010002F0010319180229029BAC
:1037A00003D16A6842F400606860696811EA0B0F2F
:1037B00004D0DAF804201A40CAF804205AF8040F9A
:1037C000284A084342F82400013449100D2C45F8DA
:1037D000041FD7D12CE0002921DD002441463346C7
:1037E0000094019448463A46FFF7B8FB55F8383B39
:1037F000591E1C4B6A6853F8240020FA01F000FAA5
:1038000001F043F8240053F82400104343F8240047
:10381000013453100D2C45F8043FEAD108E007D1DC
:1038200000910191484641463A463346FFF796FBE0
:103830004846334641463A46FFF762FBFEF776F8C4
:10384000044B1868003018BF012000E0012005B0CB
:10385000BDE8F08F8C090010A800001018000010BF
:1038600094090010781100102DE9F7433E4C814671
:10387000256F884617461E4625B13B4D2C6F002C00
:1038800022DC56E039485022D0F8F4130D2351437E
:10389000236744F8741FFEF759F8009501954846D0
:1038A00041463A463346FFF759FB314B53F8250062
:1038B000304B01050A0D53F82500013544F8042F5B
:1038C0000D2D6063F1D1D8E76B6F5A1E002B6A672C
:1038D00046DC2648072CD0F8F41305DD6FF04A03C8
:1038E000634303F21A4201E04B226243642392FBDA
:1038F000F3F24FF4FA5090FBF2F24A431A4892FB6B
:10390000F3F1013C046700F174036967D8309A68E9
:1039100011050A0D43F8042F8342F8D100231648FD
:10392000144A50F8231042F8231001330D2BF6D11E
:1039300008E0002100910191484641463A4633464D
:10394000FFF70CFB484641463A463346FFF7D8FAA4
:10395000FDF7ECFF0448016F081C18BF012000E0D0
:103960000120BDE8FE8300BF8C090010A8000010F4
:103970001800001078110010040A00102DE9F74318
:10398000464C8146D4F8E050884617461E462DB175
:10399000424CD4F8E050002D24DC63E04048502233
:1039A000D0F8F4130D235143C4F8E03044F8E41F79
:1039B000FDF7CCFF334600950195484641463A460F
:1039C000FFF7CCFA2B46374D55F82300364D01054D
:1039D0000A0D55F82300013344F8042F0D2B6063C2
:1039E000F1D1D5E7D4F8E400421E0028C4F8E42061
:1039F00050DC2B4B072DD3F8F41305DD6FF04A0292
:103A00006A4302F21A4001E04B206843642390FBB2
:103A1000F3F24FF4FA5090FBF2F24A4392FBF3F1C7
:103A2000C4F8E4101D4C013DC4F8E050FDF78EFFD2
:103A3000D4F84C2104F5A47304F1E40153F804090B
:103A40000005000D8B429860F8D1C4F8E8200023EF
:103A5000164A154852F8231040F8231001330D2B55
:103A6000F6D108E0002100910191484641463A46CE
:103A70003346FFF773FA484641463A463346FFF766
:103A80003FFAFDF753FF054AD2F8E010081C18BFB3
:103A9000012000E00120BDE8FE8300BF8C0900107A
:103AA000A80000101800001078110010740A00100F
:103AB0002DE9F7431D465D4B8046D3F850410F4634
:103AC00016462CB1594BD3F85021002A27DCA1E02F
:103AD000574A2321D2F8F40301224843C3F8502166
:103AE000C3F85401FDF732FF009401944046394673
:103AF00032462B46FFF732FA4E4B4F4A53F824001A
:103B00000105080D4D4942F8240051F82400020532
:103B1000110D43F8241001340D2CEDD1D2E7D3F868
:103B20005411481E0029C3F854017BDC404923206E
:103B3000D1F8F4134143012AC3F8541134D10023BE
:103B40001C463C4A52F824100805010D42F8241086
:103B500052F8242001340D2C1344F2D123B9334BF5
:103B60000222C3F850215DE0FFF7BCF96043041264
:103B7000304850F8241019B9FFF7B4F90D24F5E7CF
:103B8000FFF7B0F90C2250430212012000FA02F2B2
:103B9000284B53F824101142F2D053F8241021EA94
:103BA000020043F8240035E0022A33D100231846EE
:103BB0001E4A02F5AC7159580433342B0844F7D12E
:103BC00010B9C2F850012EE0FFF78CF90D246043C4
:103BD0000412164800EB8402D2F85891B9F1000F94
:103BE000F2D0FFF77FF90C214843001249FA00F3A5
:103BF000DB07F6D5012202FA00F10C4829EA01029E
:103C000000EB84030B48C3F8582150F824301943C3
:103C100040F824104046394632462B46FFF770F9EB
:103C2000FDF784FE0120BDE8FE8300BF8C09001073
:103C3000A800001078110010E40A0010180000100D
:103C40002DE9F74F98469F4B0546D3F88C410E4619
:103C50001746002C54D19C4A2821D2F8F4034FF087
:103C600001094843C3F88C91C3F89001FDF76EFE3B
:103C70003A4643460094019428463146FFF76EF9D0
:103C800023464A469149DFF84CA251F82400DFF858
:103C9000489251F824C043F80A000AF1340043F86E
:103CA00000C059F8240059F824E000054FEA0E59E5
:103CB0004FEA1959000D0AF1680B41F824900134BC
:103CC00043F80B00844518BF002204330D2CD9D1D2
:103CD000B2B10124FDF73AFE284631463A46434642
:103CE00000940194FFF73AF9314628463A46434694
:103CF000FFF706F9FDF71AFE00214AF8081CD5E087
:103D00007048D0F88C21002A40F3BF80D0F8903161
:103D10005A1E002BC0F8902100F3C8806A4C28215D
:103D2000D4F8F43300244B43A146C0F89031224626
:103D3000644800F5FE73E15800F5E4735218E15849
:103D40000434342C8944F3D132B9B9F1000F4ED187
:103D5000C0F88C914846B2E0FFF7C4F80D246043E8
:103D60000412FFF7BFF84FF00C0A0AFB00F04FEA0D
:103D7000202A544A02EB8403D3F8FCB1BBF1000FB4
:103D800005D1FFF7AFF80D2460430412F1E74BFAB9
:103D90000AF1CB0708D4FFF7A5F84FF00C0A0AFB8D
:103DA00000F14FEA212AF2E7012000FA0AF2454B1E
:103DB000D14303EB840001EA0B020023C0F8FC218D
:103DC0001A46404800F5FE7C53F80CE00433342BCF
:103DD0007244F6D100EB8400D0F8943143FA0AF033
:103DE000C00765D5002AC4D1B9F1000F56D0FFF73E
:103DF00079F80D2358430412FFF774F84FF00C09BB
:103E000009FB00F04FEA20292E4A02EB8401D1F889
:103E1000C8A1BAF1000F05D1FFF764F80D24604383
:103E20000412F1E74AFA09F3DA0708D4FFF75AF85F
:103E30004FF00C0C0CFB00F34FEA2329F2E70120B2
:103E400000FA09F21F492AEA020001EB8403C3F8D1
:103E5000C801002319461E4818580433342B014466
:103E6000F9D11A4B53F82400024218460AD150F8EF
:103E70002410164B114211D153F82400024343F889
:103E800024200BE00029BFD1F1E70021009101912E
:103E9000284631463A464346FFF760F82846314601
:103EA0003A464346FFF72CF8FDF740FD012006E0B7
:103EB000064B53F82420114043F8241094E7BDE842
:103EC000FE8F00BF8C090010A800001078110010B0
:103ED000540B0010200B0010180000102DE9F341C6
:103EE0001C4C1D46D4F830328046002B0F46164637
:103EF00006DC1948FA22D0F8F4135143C4F8301202
:103F0000D4F83032581E0028C4F830024FF00004B4
:103F10000BDD124A40F6FF7142F8241001340D2CDB
:103F2000F7D1FDF703FD012012E0FDF70FFD40463C
:103F3000394632462B4600940194FFF70FF840466D
:103F4000394632462B46FEF7DBFFFDF7EFFC2046F5
:103F5000BDE8FC818C090010A80000107811001049
:103F60002DE9F341194C1D46D4F834328046002B1C
:103F70000F46164606DC16486422D0F8F413514367
:103F8000C4F83412D4F83432581E0028C4F834026D
:103F900005DDFDF7DBFCFDF7C9FC012013E0002483
:103FA000FDF7D4FC4046394632462B460094019436
:103FB000FEF7D4FF4046394632462B46FEF7A0FFB7
:103FC000FDF7B4FC2046BDE8FC8100BF8C09001061
:103FD000A800001010B50124E3070BD500F0C4F8C9
:103FE000052000F0C9F8002000F0C6F8044600F0F3
:103FF000BFF8F1E710BD08B500F0BAF8BDE8084019
:10400000FFF7E8BF08B500F0AFF8062000F0B4F8FD
:1040100000F0AEF8BDE80840FFF7DCBF10B504467D
:10402000FFF7F0FFFFF7D6FF00F09EF8022000F048
:10403000A3F8C4F3074000F09FF8C4F3072000F092
:104040009BF8E0B2BDE8104000F096B810B50A4CFD
:1040500000F092F82368581C2060226821684B1EEB
:10406000180AB0EB122F06D2FFF7C5FF2068BDE893
:104070001040FFF7D3BF10BDC40B0010014B1860F8
:10408000FFF7CCBFC40B0010000B70B5461C00241A
:10409000B44219D2FFF7B6FF250300F065F82020DF
:1040A00000F06AF8C5F3074000F066F8290A01F04D
:1040B000F00000F061F8002000F05EF8013400F03C
:1040C00057F8FFF787FFE3E770BD38B5044600F007
:1040D0004FF800F049F8032000F04EF8C4F3074011
:1040E00000F04AF8C4F3072000F046F8E0B200F010
:1040F00043F8002000F040F80546002000F03CF8AE
:10410000290441EA0024002000F036F8044300208E
:1041100000F032F80546002000F02EF82A0442EAAA
:104120000025002000F028F8054300F021F800F0F9
:104130001BF8032000F020F8C4F3074000F01CF83F
:10414000C4F3072000F018F8E0B200F015F8284694
:1041500038BD10B5002000F00FF80446002000F034
:104160000BF844EA002010BD00200221FDF7A2B99F
:1041700000200221FDF78EB938B50446082500203D
:104180000921220602D5FDF785F901E0FDF792F934
:1041900000200A21FDF78EF9074B64001868E4B28D
:1041A000030501D5611CCCB200200A21FDF772F98C
:1041B000013DE4D1204638BDFC3F0050154B10B501
:1041C00081220024DC6120465C6602219A665A67DF
:1041D0000122FDF741F9204609210122FDF73CF9B2
:1041E00020460A210122FDF737F90B2122462046FD
:1041F000FDF732F9FFF7B8FFFF20FFF7BDFFFF2003
:10420000FFF7BAFFFFF7B4FFFFF7AEFFBDE81040BE
:10421000FFF7AEBF0040044008B50548FCF7EEFDCF
:104220000448FCF7EBFD0448BDE80840FCF7E6BD98
:104230009C570000AF570000BA570000F7B51E4B5F
:104240000746DC6B0E4614F0800415462CD121463F
:104250000F20FCF7BFF8204601A90422FCF7E0F884
:104260009DF804000A24020900F00F0104FB02106B
:10427000124B9DF8051028600A09186001F00F0024
:1042800004FB02019DF806203160C2F30010444394
:1042900059601420C2F3401100FB014402F00F02E8
:1042A000A1183960996006E0044882684168036893
:1042B0003A6031602B60FEBDC03F0050C80B00105B
:1042C00037B50A246FF0090392FBF4F503FB0522CE
:1042D00042EA051591FBF4F203FB021190FBF4F4A2
:1042E00003FB040041EA021240EA04148DF80520A1
:1042F000002001A903228DF804508DF80640FBF739
:10430000F7FF3EBD234B70B5DA68B2F5FA6F02DAFB
:10431000501CD86070BD204C0021D4F89450D96056
:1043200025F08F06C4F89460D4F89430052043F04B
:104330000102C4F89420FEF739F81849184A0D68AC
:1043400080084E684FF4C87350435E4303FB05F288
:10435000642400F5C730B6FBF4F17030FF26B2FBE1
:10436000F4F2B0FBF6F0521A4243B2FBF3F04118FC
:10437000994203D804298CBF0B460523054A1069CE
:10438000A0EB1011CB18180950611361054952694F
:104390008A6170BDC80B001000400440A0040010EA
:1043A00070FEFFFF00C000400F4B4821D3F8802073
:1043B00042F08000C3F88000A3F57033D9600B4948
:1043C00078220220DA6108660122642018215A67E7
:1043D000986159610649202081F829034FF4007043
:1043E00048605A60704700BF0080044000400440AD
:1043F00000E100E008B5022006210122FDF72CF8BB
:10440000032001460122FDF727F8012103200A4677
:10441000FDF722F8012203200021FDF71DF80320FB
:104420000021FDF737F802200621FDF743F80320AD
:104430000146FDF73FF803200121BDE80840FDF7E4
:1044400039B8F8B54B1E012707FA03F705460E46A3
:104450000024B44213D203203D42014602D0FDF7AE
:1044600019F801E0FDF726F803200121FDF712F805
:10447000032001216D00FDF71DF80134E9E7F8BDC7
:104480000220062108B5FDF705F802200621BDE847
:104490000840FDF70FB80146032009B9FCF7FABF41
:1044A0000021FDF707B808B5022009210122FCF719
:1044B000D3FF022001460122FCF7CEFF0122022099
:1044C0000A21FCF7C9FF02200921FCF7F3FF0220B3
:1044D0000146FCF7EFFF02200A21BDE80840FCF787
:1044E000E9BFF8B54B1E012707FA03F705460E464C
:1044F0000024B44213D202203D42014602D0FCF710
:10450000C9FF01E0FCF7D6FF02200A21FCF7C2FF39
:1045100002200A216D00FCF7CDFF0134E9E7F8BD68
:104520000220092108B5FCF7B5FF02200921BDE8EA
:104530000840FCF7BFBF000000210A2200F06CBD5C
:10454000F0B48407034600F08D80541E002A00F06A
:104550008780E507CEB211D41A4602F8016B1346E4
:104560001546920710D0621E002C79D003F8016B1B
:1045700014469A071D4607D0013CEDE7034603F8B1
:10458000016B9A071D46F7D1032C52D9CEB246EAE9
:1045900006270F2C47EA07432DD9A4F1100217462E
:1045A0000F2FC2F300162B606B60AB60EB6005F160
:1045B000100216D93EB1103F136053609360D36070
:1045C00010320F2F0DD9203F02F1100613605360F7
:1045D0009360D360136153619361D36120320F2FD5
:1045E000F1D8A4F1100222F00F0204F00F041032EF
:1045F000032C15441DD9271F3E462A46032E42F898
:10460000043BC7F380070DD927B1043E032E42F8BF
:10461000043B07D9174647F8043B083E53603A1D50
:10462000032EF7D8231F23F00302131D04F0030405
:10463000ED18ACB1C9B2EA432C1905F8011BA31857
:10464000A54203F001020BD01AB105F8011BA542E7
:1046500006D02B4603F8011B69705D1CA542F8D1FA
:10466000F0BC7047054614468EE700BF20F00301FA
:1046700010F00300C0F1000051F8043B00F1040CFD
:104680004FEACC0C6FF000021CBF22FA0CF213436D
:104690004FF0010C4CEA0C2C4CEA0C4CA3EB0C0236
:1046A00022EA030212EACC1204BF51F8043B0430A0
:1046B000F4D013F0FF0F1FBF013013F47F4F013010
:1046C00013F47F0F18BF0130704700BF41EA0003A9
:1046D0009B07F0B474D1032A72D90C4654F8045BDA
:1046E000161FA5F1013727EA050717F0803F03469B
:1046F000C6F3800C31D10346032E324643F8045BE7
:104700002AD9BCF1000F0AD0214654F8045BA5F168
:10471000013626EA050616F0803F18D01DE0264631
:1047200056F8045B2146A5F1013727EA050717F083
:10473000803F12D143F8045B65683146A5F101362C
:1047400026EA0506043A0C1D16F0803F05D1043A0E
:10475000032A43F8045BE2D821467AB30D78013A84
:1047600003F8015B9DB112F0010F1C462AD12346CC
:1047700022B311F8015F013A03F8015B3DB111F872
:10478000015F013A65705C1C2346002DEFD1AAB190
:1047900000219C18DA4303F8011BA218A34202F07F
:1047A00001020BD01AB103F8011BA34206D01A462E
:1047B00002F8011B5970531CA342F8D1F0BC70479A
:1047C0000346CAE711F8015F1C4604F8015B013A91
:1047D0002346002DCBD1DAE72DE9F00701273C462F
:1047E00000254FF0FF3663198B4200EB060C0DD20B
:1047F0001CF804A010F80380D0452ED201241D46D9
:104800009F1B63198B4200EB060CF1D34FF0010A9A
:104810001760544600254FF0FF3C6319994200EBA6
:104820000C080ED918F8048010F80390C1451AD965
:1048300001241D46CCEB030A6319994200EB0C08D6
:10484000F0D80CF101000136B0423CBFBA46304608
:10485000C2F800A0BDE8F00770470BD001272E4634
:104860003C46ED19BFE709D04FF0010AAC4654466B
:104870005544D2E7BC4205D00134B4E7544505D0D5
:104880000134CAE727461D460124ACE7A2461D466F
:104890000124C2E72DE9F04FADF2244D154606463E
:1048A00089461046194607AA1C46FFF795FF07AB35
:1048B00082460DF21C411A1D5C6008338B42546025
:1048C000F9D114B301232F78611E08A8A34240F840
:1048D000271001EA030218D032B16A7802234F1E72
:1048E000A34240F8227010D0B046A4465C1C15F8D4
:1048F00003E0CE1A2A5D02330F1B634540F82E6099
:1049000040F82270F2D14646644607992846691855
:10491000524600F02FFC002840F0B6800AF1FF3E1E
:1049200005EB0E0CCDF808E0CAF1010E834604F148
:10493000FF38CDF80CC0CDF814E00746CDF810A034
:104940004A460095019408E027B1079FBB4201D277
:104950000199CB1B9B4400272246019CB0185C4464
:104960000021A21A00F066FB002840F08780002C8E
:1049700000F08480301910F8013C08A951F8233068
:10498000002BE1D1049B9F4228BF3B46434527D2E1
:10499000DDF8009006EB0B0119F80350CA5C09EB37
:1049A0000300954266D1DD43454415F0010F0246F0
:1049B00013D00133434513D24078CD5C0132854298
:1049C0000BD057E012F8010FCD5C854252D1013374
:1049D00012F8010FCD5C85424CD101334345F1D330
:1049E000DDF81090029B4F4528BF4B4639D2DDF8C9
:1049F00008C0DDF8009006EB0B0519F80C1015F84F
:104A00000C00814240F0C080DDF80CE009EB070AA1
:104A1000CAEB0E01C80772461ED5DDF8089009F1F1
:104A2000FF31DDF80C90685C19F801CC09F1FF3218
:104A3000844516D10B460FE012F8019C15F800E0F2
:104A40004A1EF1450DD10346013815F800C011F892
:104A5000011C614505D10346581E524502F1FF3144
:104A6000EAD101379F4200F29180079F019ABB442F
:104A7000D71B71E7DDF814E0F3446BE7002009B0C1
:104A80000DF5806DBDE8F08FCAEB0400504538BFCE
:104A90005046CAF10102431C0AF1FF3C05EB0A072C
:104AA00004F1FF3B019200944A460793B1464FF050
:104AB000000864463E46009909EB020008EB010736
:104AC000BA1A002100F0B6FA0028D7D1002FD5D0AD
:104AD00009EB070010F8013C08AA52F8230000284F
:104AE0004AD1DA4509EB08002AD210F80A303178A9
:104AF000994218BF534642D16FEA0A0303EB0B01F8
:104B0000C9073246534618D50AF101035B4517D24F
:104B1000324612F8011F10F803E08E450DD02EE04A
:104B200012F8011F10F803C08C4528D1013312F888
:104B3000011F10F803E08E4521D101335B45EFD30F
:104B4000621C23469BD0295D025D914213D1E1078F
:104B500009D5631EE95CC25C914204D00BE0E95CBC
:104B6000C25C914207D15A1E002B88D0A95C825C9E
:104B7000023B9142F3D0079880443A469BE7DDF828
:104B800004C0E0449844F8E7049B6AE706EB0B0096
:104B900075E700BF2DE9F04F037889B080460D46D8
:104BA000002B00F065810A789AB184460131012614
:104BB00002E011F8012B5AB1934214BF002606F00F
:104BC00001061CF8013F0C46002BF2D1207820B9D9
:104BD00036B1404609B0BDE8F08F4FF00008F8E765
:104BE00008F10100297800F021FB641B064600282B
:104BF000F3D0012C00F0B580A044404594BFC0EB39
:104C0000080701271F2C06D939462A462346FFF7F5
:104C100041FE8046DDE7214607AA2846FFF7DCFD76
:104C20000799039069182846039A00F0A3FA002810
:104C300040F09980DDF80CC0DDF80C900CF1FF3EDF
:104C400005EB0E01C9F1010C8346CDF808E0804662
:104C50000491CDF814C03A46B146019508EB04061C
:104C600009EB02000021B21A00F0E4F90028B4D1E7
:104C7000002EB2D0039B9B4528BF5B469C4227D9A0
:104C8000019D09EB030010F80820E95CE818914247
:104C90005FD1DD432D1915F0010F024609EB080124
:104CA00013D001339C4213D94078CD5C0132854248
:104CB0000BD04EE012F8010FCD5C854249D1013393
:104CC00012F8010FCD5C854243D101339C42F1D8EB
:104CD000DDF80CE0029ADE4540F2CD80019B09EB45
:104CE0000805995CA85C814240F0C580DDF804A00D
:104CF000049BDA44CAEB0301C8071AD5029FDDF80A
:104D000010C0791E685C1CF8017C0CF1FF338742EF
:104D100014D10A460DE013F801EC2F5C4B1EBE4582
:104D20000CD1024601382F5C11F8011CB94205D1A3
:104D30000246501E534503F1FF31ECD10BF1010B3C
:104D4000934500F29A80079A9044C2EB040B3246D6
:104D500084E7059D05EB080B0BEB03084FF0000BF8
:104D6000F5E7804635E7DDF80CA00399CAEB0403AC
:104D7000534538BF5346CAF1010B581C06EB0A02D3
:104D800005EB0A08CDF808B03B4607904FF0000944
:104D9000019201F1FF3B37468A4609EB0406F818F9
:104DA0000021F21A00F046F900287FF416AF002E19
:104DB0003FF413AF544598BF07EB09002CD9DDF839
:104DC00004E098F800001EF8093098424AD16FEAD2
:104DD0000A021119C9074246534607EB090018D5C4
:104DE0000AF101039C4217D9424612F8011F10F83C
:104DF00003C08C450DD036E012F8011F10F803E017
:104E00008E4530D1013312F8011F10F803C08C45D4
:104E100029D101339C42EFD8BBF1FF3F5B463FF401
:104E2000F8AE15F80B1010F80B20914216D11BF0BC
:104E3000010F0AD00BF1FF33E95CC25C914204D050
:104E40000CE0E95CC25C914208D15A1E002B3FF491
:104E5000E0AEA95C825C023B9142F2D007988144AB
:104E600033469AE75346DDF808E0F1449944F7E702
:104E70000C460126AAE6039A60E74E46C844A8E617
:104E8000F0B4002825D0074638463E780D46013755
:104E900015F8014B3CB1A642FAD1002BF4D11760B2
:104EA00007F8013C11E0C6B13D4600E01BB915F81A
:104EB000016B0C46284614F8013B9E42F6D136B1F0
:104EC000002105F8011C1060781EF0BC70473046C8
:104ED000F9E710680028D6D1F7E716603046F4E706
:104EE0000123FFF7CDBF00BF2DE9F00F494C82B081
:104EF000D4F800C001900F463C4614F8015B0CEB5F
:104F000005004678274606F00800C6B2002EF3D109
:104F10002D2D61D02B2D04BF244614F8015BB34620
:104F2000002B41D1302D43D00A239A46BBF1000F0C
:104F30000CBF6FF000474FF00047B7FBFAF90AFBD0
:104F400019700090002080460CE0303DAB421BDD24
:104F5000461C05D0C84539D835D00AFB0858012071
:104F600014F8015B0CEB0506767806F00407FFB237
:104F7000002FEAD116F0030606D0012E14BF5726E3
:104F80003726AD1BAB42E3DC431C2AD0BBF1000F3C
:104F900001D0C8F10008002A31D0D0B940461160D4
:104FA00002B0BDE8F00F7047102BBED1302DBCD140
:104FB0002578782D25D0582D23D043BB4FF0080AF3
:104FC00030255346B2E700988542C6DD4FF0FF30EA
:104FD000C6E74046611EE2E714F8015B4FF0010BA3
:104FE0009EE7BBF1000F01990CBF6FF000404FF03E
:104FF000004022230B60002AD2D0611ECFE740463A
:10500000CEE74FF0100A6578534602348EE79A4691
:1050100030258BE7AC04001070B440F6D804C1F220
:10502000000406460D462068134631462A4670BCE9
:10503000FFF75ABF8307F0B4C9B200F09680531E41
:10504000002A00F0948002788A420BD0421CD807D4
:105050001AD512F0030F10461CD01478013B013210
:105060008C4211D1F0BC7047002B7CD01278013BF0
:105070008A42F7D014F0030F204604F1010209D050
:105080002478013B8C42EDD012F0030F104602F160
:105090000104E9D1032B3FD9046841EA012545EA1F
:1050A000054585EA0407A7F1013222EA07021E1F1F
:1050B000041D12F0803FC6F380072DD1032E334626
:1050C00029D967B12668204685EA0602A2F1013691
:1050D00026EA0202043412F0803F19D01CE0204678
:1050E0002468061D85EA0402A2F1013424EA0202C2
:1050F00012F0803F10D13468043B85EA0402A2F12B
:10510000013424EA0202341D12F0803F304603D1FC
:10511000043B032BE3D820465D1E23B303788B4268
:10512000A0D0431C0022E80714D51C7818460122A1
:1051300001338C4296D09542184603F1010402F1E6
:1051400002020ED01B788B428CD020462478431C60
:105150008C4287D09542184603F1010402F1020205
:10516000F0D100207EE718467CE7134692E7104610
:1051700078E700BF032AF0B431D941EA00039C0765
:105180002ED106680F68151F031D0C1DBE42C5F306
:10519000800C24D1032D2A461FD9BCF1000F08D062
:1051A0001E6825682146184604340433AE4211D0E7
:1051B00015E0214618461C680B68051D0E1D9C4213
:1051C0000DD1314628462E680D68043A031D0C1D8A
:1051D000AE4204D1043A032AEBD8214618461AB34A
:1051E00003780C78A3420AD1551E0022EB0714D590
:1051F00010F8013F11F8014F0122A3420DD0181BF6
:1052000010E010F8013F11F8014FA342F7D110F858
:10521000013F11F8014FA342F1D1AA4202F102026B
:10522000EFD10020F0BC70471046FBE7C9B2F0B4E4
:1052300000294BD082070FD00278002A71D091420A
:1052400042D0431C05E013F8012B002A3BD09142C9
:105250003AD09A071846F6D1036841EA0127A3F12C
:10526000013222EA030212F0803F47EA07471CD1CD
:105270007B40A3F1013222EA030313F0803F14D1F3
:10528000021D02E014F0803F0FD1104652F8043B9B
:10529000A3F1013687EA030426EA0303A4F10135EA
:1052A00013F0803F25EA0404ECD00278002A38D0BD
:1052B000914209D0431C01E0914205D0184613F8F1
:1052C000012B002AF8D11046F0BC704783070BD0A1
:1052D0000278002AF8D0431C03E00178013300294A
:1052E000F2D099071846F8D10168A1F1013323EAF9
:1052F000010212F0803F0AD1031D184653F8041B27
:10530000A1F1013424EA010212F0803FF5D00378C4
:10531000002BD9D0421C1178104601320029FAD155
:10532000D2E71046D0E700BF576F7264436C6F63DB
:105330006B20496E697469616C697A6564004F4BD2
:105340000D0A00454E440D0A0047455400544F5580
:105350004348004C6566743A200052696768743AA5
:1053600020004C4D494E00446973706C61792049AE
:105370006E74656E73697479204D696E3A20004CC5
:105380004D415800446973706C617920496E7465B1
:105390006E73697479204D61783A200054494D4507
:1053A0000043757272656E742054696D653A200011
:1053B0004D4F44450043757272656E74204D6F64A5
:1053C000653A20004E4F544154004E6F7461746929
:1053D0006F6E20697320350D0A004E6F7461746919
:1053E0006F6E20697320310D0A00415544494F45C5
:1053F0004E4100417564696F20456E61626C656461
:105400003A2000547275650046616C736500444132
:105410005348454E4100446173682044697361629A
:105420006C65640D0A004461736820456E61626CAE
:1054300065640D0A004C414E47005468652063685E
:105440006F73656E206C616E67616765206973209C
:1054500000456E676C697368004475746368005535
:105460006E6B6E6F776E20436F6D6D616E643A2068
:1054700000534554004E65772074696D652073654F
:10548000740D0A004E657720646973706C61792031
:105490006D696E20696E74656E73697479207365C9
:1054A000740D0A004E657720646973706C61792011
:1054B0006D617820696E74656E73697479207365A7
:1054C000740D0A005452414E535044005472616EA0
:1054D000736974696F6E20737065656420666163BB
:1054E000746F72207365740D0A004E6577206C61CD
:1054F0006E6775616765207365740D0A00545255B7
:105500004500417564696F20456E61626C65640D8C
:105510000A00417564696F2044697361626C656457
:105520000D0A0046414C534500446973706C617923
:1055300020646173682064697361626C65640D0A3C
:1055400000446973706C6179206461736820656ED2
:1055500061626C65640D0A004D6F646520556E6B69
:105560006E6F776E0D0A004E6577206D6F64652053
:105570007365740D0A004E6F746174696F6E205507
:105580006E6B6E6F776E0D0A004E6577206E6F74CE
:105590006174696F6E207365740D0A004E65772023
:1055A000546F7563682073656E7369746976697486
:1055B00079207365740D0A00434C52464C415348A0
:1055C00000466C617368206572617365640D0A0042
:1055D00055504C464C415348004F4B200D0A004457
:1055E000574E464C41534800000000500000015007
:1055F000000002500000035052616E646F6D204D38
:105600006F64653A20000000612100005D1B00000E
:1056100000000000491B00000000000053686F728A
:105620007420546F75636820004E6577204D6F6459
:1056300065205365743A20004C6F6E6720546F7577
:10564000636820004E6577204D6F64652053657454
:105650003A204D7973746963210D0A00546F7563A4
:1056600068203020526573746172742E2E0D0A000A
:10567000546F756368203120526573746172742EA3
:105680002E0D0A003A20696E697469616C697A6549
:10569000640D0A0000010208182838040309041CDC
:1056A000034E00580050002000530045004D0049B3
:1056B0000043004F004E004400200024034E0058D9
:1056C00000500020004C00500043003100330078AF
:1056D0000078002000560043004F004D0020001AC3
:1056E00003440045004D004F0030003000300030D2
:1056F0000030003000300030000A03560043004FF5
:10570000004D00090243000201008032090400003C
:10571000010202005E0524001001052401010104BC
:105720002402020524060001070581031000020976
:10573000040100020A00005E0705030240000007A2
:10574000058302400000001201000202000040C96F
:105750001F03000001010203010000006A000000B5
:1057600016000000100000000A00000022000000E7
:10577000280000002E000000340000003A00000065
:1057800040000000460000004C00000052000000F5
:10579000580000005E0000006400000041542B4EE1
:1057A000414D45576F7264436C6F636B0D0A004146
:1057B000542B504F5745320D0A0041542B5245533C
:1057C00045540D0A00000000002020202020202049
:1057D00020202828282828202020202020202020A1
:1057E00020202020202020202088101010101010B1
:1057F00010101010101010101004040404040404FD
:105800000404041010101010101041414141414196
:105810000101010101010101010101010101010178
:105820000101010110101010101042424242424288
:105830000202020202020202020202020202020248
:1058400002020202101010102000000000000000F0
:105850000000000000000000000000000000000048
:105860000000000000000000000000000000000038
:105870000000000000000000000000000000000028
:105880000000000000000000000000000000000018
:105890000000000000000000000000000000000008
:1058A00000000000000000000000000000000000F8
:1058B00000000000000000000000000000000000E8
:1058C0000000000000000000000000004300000095
:1058D000001BB70080250000000008000100010047
:1058E000960000000100000001000000020000001E
:1058F000040000000800000010000000200000006C
:1059000040000000800000000001000000020000D4
:10591000000400000008000000100000010000006A
:10592000FFFFFFFFFFFFFFFF370000000A0000003E
:10593000A0000000F4010000F4010000FF0F0000CF
:10594000FF0F0000050000000100000088130000A8
:10595000881300000F000000010000000C00000090
:10596000FFFFFFFFFFFFFFFFFFFFFFFFFFFFFFFF47
:10597000FFFFFFFFFFFFFFFF01000100000000002D
:105980000B00000003000000040000000B000000FA
:1059900002000000000000000400000004000000FD
:1059A0000900000005000000040000000A000000DB
:1059B00000000000030000000000000006000000DE
:1059C00005000000050000000400000004000000C5
:1059D00000000000000000000000000000000000C7
:1059E00000000000000000000000000000000000B7
:1059F00000000000000000000000000000000000A7
:105A00000000000000000000000000000000000096
:105A10000000000000000000000000000000000086
:105A20000000000000000000000000000000000076
:105A30000A00000004000000030000000000000055
:105A40000300000004000000050000000300000047
:105A50000400000009000000030000000400000032
:105A6000000000000200000004000000040000002C
:105A70000200000003000000080000000200000017
:105A8000050000000000000001000000040000000C
:105A900004000000010000000500000009000000F3
:105AA00001000000040000000000000000000000F1
:105AB00003000000030000000000000006000000DA
:105AC00000000000000000000000000007000000CF
:105AD0000B00000003000000000000000A000000AE
